{
  "_format": "hh-sol-artifact-1",
  "contractName": "Apparel",
  "sourceName": "contracts/Apparel.sol",
  "abi": [
    {
      "inputs": [
        {
          "internalType": "uint256",
          "name": "product_id",
          "type": "uint256"
        },
        {
          "internalType": "string",
          "name": "hash",
          "type": "string"
        }
      ],
      "name": "addApparelHash",
      "outputs": [],
      "stateMutability": "nonpayable",
      "type": "function"
    },
    {
      "inputs": [
        {
          "internalType": "uint256",
          "name": "product_id",
          "type": "uint256"
        },
        {
          "internalType": "uint256",
          "name": "user_id",
          "type": "uint256"
        },
        {
          "internalType": "string",
          "name": "thread_diameter",
          "type": "string"
        },
        {
          "internalType": "string",
          "name": "thread_friction",
          "type": "string"
        },
        {
          "internalType": "string",
          "name": "uniformity",
          "type": "string"
        },
        {
          "internalType": "string",
          "name": "tensile_strength",
          "type": "string"
        },
        {
          "internalType": "string",
          "name": "thread_count",
          "type": "string"
        },
        {
          "internalType": "string",
          "name": "apparel_color_palette_img",
          "type": "string"
        },
        {
          "internalType": "string",
          "name": "img2",
          "type": "string"
        }
      ],
      "name": "addApparelInfo",
      "outputs": [],
      "stateMutability": "nonpayable",
      "type": "function"
    },
    {
      "inputs": [
        {
          "internalType": "uint256",
          "name": "product_id",
          "type": "uint256"
        },
        {
          "internalType": "string",
          "name": "hash",
          "type": "string"
        }
      ],
      "name": "addFiberHash",
      "outputs": [],
      "stateMutability": "nonpayable",
      "type": "function"
    },
    {
      "inputs": [
        {
          "internalType": "uint256",
          "name": "user_id",
          "type": "uint256"
        },
        {
          "internalType": "uint256",
          "name": "product_id",
          "type": "uint256"
        },
        {
          "internalType": "string",
          "name": "employee_name",
          "type": "string"
        },
        {
          "internalType": "string",
          "name": "product_quantity",
          "type": "string"
        },
        {
          "internalType": "string",
          "name": "microscopic_test_result",
          "type": "string"
        },
        {
          "internalType": "string",
          "name": "tensile_test_result",
          "type": "string"
        },
        {
          "internalType": "string",
          "name": "fiber_type",
          "type": "string"
        },
        {
          "internalType": "string",
          "name": "BSTI_standards_accoradance",
          "type": "string"
        },
        {
          "internalType": "string",
          "name": "fiber_color_palette_img",
          "type": "string"
        },
        {
          "internalType": "string",
          "name": "img2",
          "type": "string"
        }
      ],
      "name": "addFiberInfo",
      "outputs": [],
      "stateMutability": "nonpayable",
      "type": "function"
    },
    {
      "inputs": [
        {
          "internalType": "uint256",
          "name": "product_id",
          "type": "uint256"
        }
      ],
      "name": "getApparelHash",
      "outputs": [
        {
          "internalType": "string",
          "name": "",
          "type": "string"
        }
      ],
      "stateMutability": "view",
      "type": "function"
    },
    {
      "inputs": [
        {
          "internalType": "uint256",
          "name": "product_id",
          "type": "uint256"
        }
      ],
      "name": "getApparelInfo",
      "outputs": [
        {
          "components": [
            {
              "internalType": "uint256",
              "name": "product_id",
              "type": "uint256"
            },
            {
              "internalType": "string",
              "name": "thread_diameter",
              "type": "string"
            },
            {
              "internalType": "string",
              "name": "thread_friction",
              "type": "string"
            },
            {
              "internalType": "string",
              "name": "uniformity",
              "type": "string"
            },
            {
              "internalType": "string",
              "name": "tensile_strength",
              "type": "string"
            },
            {
              "internalType": "string",
              "name": "thread_count",
              "type": "string"
            },
            {
              "internalType": "string",
              "name": "apparel_color_palette_img",
              "type": "string"
            },
            {
              "internalType": "string",
              "name": "img2",
              "type": "string"
            }
          ],
          "internalType": "struct Apparel.ApparelInfo",
          "name": "",
          "type": "tuple"
        }
      ],
      "stateMutability": "view",
      "type": "function"
    },
    {
      "inputs": [
        {
          "internalType": "uint256",
          "name": "product_id",
          "type": "uint256"
        }
      ],
      "name": "getFiberHash",
      "outputs": [
        {
          "internalType": "string",
          "name": "",
          "type": "string"
        }
      ],
      "stateMutability": "view",
      "type": "function"
    },
    {
      "inputs": [
        {
          "internalType": "uint256",
          "name": "product_id",
          "type": "uint256"
        }
      ],
      "name": "getFiberInfo",
      "outputs": [
        {
          "components": [
            {
              "internalType": "uint256",
              "name": "product_id",
              "type": "uint256"
            },
            {
              "internalType": "string",
              "name": "employee_name",
              "type": "string"
            },
            {
              "internalType": "string",
              "name": "product_quantity",
              "type": "string"
            },
            {
              "internalType": "string",
              "name": "microscopic_test_result",
              "type": "string"
            },
            {
              "internalType": "string",
              "name": "tensile_test_result",
              "type": "string"
            },
            {
              "internalType": "string",
              "name": "fiber_type",
              "type": "string"
            },
            {
              "internalType": "string",
              "name": "BSTI_standards_accoradance",
              "type": "string"
            },
            {
              "internalType": "string",
              "name": "fiber_color_palette_img",
              "type": "string"
            },
            {
              "internalType": "string",
              "name": "img2",
              "type": "string"
            }
          ],
          "internalType": "struct Apparel.FiberInfo",
          "name": "",
          "type": "tuple"
        }
      ],
      "stateMutability": "view",
      "type": "function"
    },
    {
      "inputs": [
        {
          "internalType": "uint256",
          "name": "product_id",
          "type": "uint256"
        }
      ],
      "name": "getProductInfo",
      "outputs": [
        {
          "components": [
            {
              "internalType": "uint256",
              "name": "product_id",
              "type": "uint256"
            },
            {
              "internalType": "string",
              "name": "status",
              "type": "string"
            },
            {
              "internalType": "string",
              "name": "product_name",
              "type": "string"
            }
          ],
          "internalType": "struct Apparel.Product",
          "name": "",
          "type": "tuple"
        }
      ],
      "stateMutability": "view",
      "type": "function"
    },
    {
      "inputs": [
        {
          "internalType": "uint256",
          "name": "user_id",
          "type": "uint256"
        }
      ],
      "name": "getUserProducts",
      "outputs": [
        {
          "internalType": "uint256[]",
          "name": "",
          "type": "uint256[]"
        }
      ],
      "stateMutability": "view",
      "type": "function"
    },
    {
      "inputs": [
        {
          "internalType": "uint256",
          "name": "user_id",
          "type": "uint256"
        },
        {
          "internalType": "uint256",
          "name": "product_id",
          "type": "uint256"
        },
        {
          "internalType": "string",
          "name": "product_name",
          "type": "string"
        }
      ],
      "name": "orderProduct",
      "outputs": [],
      "stateMutability": "nonpayable",
      "type": "function"
    }
  ],
  "bytecode": "0x60806040526000805534801561001457600080fd5b50612013806100246000396000f3fe608060405234801561001057600080fd5b50600436106100a95760003560e01c8063c7a14e5611610071578063c7a14e5614610176578063cee9b876146101a6578063d882ded1146101c2578063e1713b42146101f2578063ecc479f21461020e578063eec7e9f01461023e576100a9565b806363ec558a146100ae57806379a85e6c146100ca5780637ce8e1e5146100fa578063aac5d68514610116578063b19ffeba14610146575b600080fd5b6100c860048036038101906100c3919061171b565b61025a565b005b6100e460048036038101906100df919061162e565b610403565b6040516100f19190611dca565b60405180910390f35b610114600480360381019061010f9190611889565b61055e565b005b610130600480360381019061012b919061162e565b61072c565b60405161013d9190611d64565b60405180910390f35b610160600480360381019061015b919061162e565b6107d1565b60405161016d9190611da8565b60405180910390f35b610190600480360381019061018b919061162e565b610c99565b60405161019d9190611d86565b60405180910390f35b6101c060048036038101906101bb9190611657565b6110cf565b005b6101dc60048036038101906101d7919061162e565b6110f7565b6040516101e99190611d42565b60405180910390f35b61020c600480360381019061020791906116af565b611162565b005b6102286004803603810190610223919061162e565b611290565b6040516102359190611d64565b60405180910390f35b61025860048036038101906102539190611657565b611335565b005b600760008981526020019081526020016000208890806001815401808255809150506001900390600052602060002001600090919091909150556040518061010001604052808a815260200188815260200187815260200186815260200185815260200184815260200183815260200182815250600960008b815260200190815260200160002060008201518160000155602082015181600101908051906020019061030792919061138c565b50604082015181600201908051906020019061032492919061138c565b50606082015181600301908051906020019061034192919061138c565b50608082015181600401908051906020019061035e92919061138c565b5060a082015181600501908051906020019061037b92919061138c565b5060c082015181600601908051906020019061039892919061138c565b5060e08201518160070190805190602001906103b592919061138c565b509050506103f8896040518060400160405280601381526020017f434f4d504c4554452050524f44554354494f4e0000000000000000000000000081525061135d565b505050505050505050565b61040b611412565b600160008381526020019081526020016000206040518060600160405290816000820154815260200160018201805461044390611ef4565b80601f016020809104026020016040519081016040528092919081815260200182805461046f90611ef4565b80156104bc5780601f10610491576101008083540402835291602001916104bc565b820191906000526020600020905b81548152906001019060200180831161049f57829003601f168201915b505050505081526020016002820180546104d590611ef4565b80601f016020809104026020016040519081016040528092919081815260200182805461050190611ef4565b801561054e5780601f106105235761010080835404028352916020019161054e565b820191906000526020600020905b81548152906001019060200180831161053157829003601f168201915b5050505050815250509050919050565b600460008b81526020019081526020016000208990806001815401808255809150506001900390600052602060002001600090919091909150556040518061012001604052808a815260200189815260200188815260200187815260200186815260200185815260200184815260200183815260200182815250600660008b815260200190815260200160002060008201518160000155602082015181600101908051906020019061061192919061138c565b50604082015181600201908051906020019061062e92919061138c565b50606082015181600301908051906020019061064b92919061138c565b50608082015181600401908051906020019061066892919061138c565b5060a082015181600501908051906020019061068592919061138c565b5060c08201518160060190805190602001906106a292919061138c565b5060e08201518160070190805190602001906106bf92919061138c565b506101008201518160080190805190602001906106dd92919061138c565b50905050610720896040518060400160405280600a81526020017f494e204150504152454c0000000000000000000000000000000000000000000081525061135d565b50505050505050505050565b606060086000838152602001908152602001600020805461074c90611ef4565b80601f016020809104026020016040519081016040528092919081815260200182805461077890611ef4565b80156107c55780601f1061079a576101008083540402835291602001916107c5565b820191906000526020600020905b8154815290600101906020018083116107a857829003601f168201915b50505050509050919050565b6107d9611433565b60066000838152602001908152602001600020604051806101200160405290816000820154815260200160018201805461081290611ef4565b80601f016020809104026020016040519081016040528092919081815260200182805461083e90611ef4565b801561088b5780601f106108605761010080835404028352916020019161088b565b820191906000526020600020905b81548152906001019060200180831161086e57829003601f168201915b505050505081526020016002820180546108a490611ef4565b80601f01602080910402602001604051908101604052809291908181526020018280546108d090611ef4565b801561091d5780601f106108f25761010080835404028352916020019161091d565b820191906000526020600020905b81548152906001019060200180831161090057829003601f168201915b5050505050815260200160038201805461093690611ef4565b80601f016020809104026020016040519081016040528092919081815260200182805461096290611ef4565b80156109af5780601f10610984576101008083540402835291602001916109af565b820191906000526020600020905b81548152906001019060200180831161099257829003601f168201915b505050505081526020016004820180546109c890611ef4565b80601f01602080910402602001604051908101604052809291908181526020018280546109f490611ef4565b8015610a415780601f10610a1657610100808354040283529160200191610a41565b820191906000526020600020905b815481529060010190602001808311610a2457829003601f168201915b50505050508152602001600582018054610a5a90611ef4565b80601f0160208091040260200160405190810160405280929190818152602001828054610a8690611ef4565b8015610ad35780601f10610aa857610100808354040283529160200191610ad3565b820191906000526020600020905b815481529060010190602001808311610ab657829003601f168201915b50505050508152602001600682018054610aec90611ef4565b80601f0160208091040260200160405190810160405280929190818152602001828054610b1890611ef4565b8015610b655780601f10610b3a57610100808354040283529160200191610b65565b820191906000526020600020905b815481529060010190602001808311610b4857829003601f168201915b50505050508152602001600782018054610b7e90611ef4565b80601f0160208091040260200160405190810160405280929190818152602001828054610baa90611ef4565b8015610bf75780601f10610bcc57610100808354040283529160200191610bf7565b820191906000526020600020905b815481529060010190602001808311610bda57829003601f168201915b50505050508152602001600882018054610c1090611ef4565b80601f0160208091040260200160405190810160405280929190818152602001828054610c3c90611ef4565b8015610c895780601f10610c5e57610100808354040283529160200191610c89565b820191906000526020600020905b815481529060010190602001808311610c6c57829003601f168201915b5050505050815250509050919050565b610ca161147f565b600960008381526020019081526020016000206040518061010001604052908160008201548152602001600182018054610cda90611ef4565b80601f0160208091040260200160405190810160405280929190818152602001828054610d0690611ef4565b8015610d535780601f10610d2857610100808354040283529160200191610d53565b820191906000526020600020905b815481529060010190602001808311610d3657829003601f168201915b50505050508152602001600282018054610d6c90611ef4565b80601f0160208091040260200160405190810160405280929190818152602001828054610d9890611ef4565b8015610de55780601f10610dba57610100808354040283529160200191610de5565b820191906000526020600020905b815481529060010190602001808311610dc857829003601f168201915b50505050508152602001600382018054610dfe90611ef4565b80601f0160208091040260200160405190810160405280929190818152602001828054610e2a90611ef4565b8015610e775780601f10610e4c57610100808354040283529160200191610e77565b820191906000526020600020905b815481529060010190602001808311610e5a57829003601f168201915b50505050508152602001600482018054610e9090611ef4565b80601f0160208091040260200160405190810160405280929190818152602001828054610ebc90611ef4565b8015610f095780601f10610ede57610100808354040283529160200191610f09565b820191906000526020600020905b815481529060010190602001808311610eec57829003601f168201915b50505050508152602001600582018054610f2290611ef4565b80601f0160208091040260200160405190810160405280929190818152602001828054610f4e90611ef4565b8015610f9b5780601f10610f7057610100808354040283529160200191610f9b565b820191906000526020600020905b815481529060010190602001808311610f7e57829003601f168201915b50505050508152602001600682018054610fb490611ef4565b80601f0160208091040260200160405190810160405280929190818152602001828054610fe090611ef4565b801561102d5780601f106110025761010080835404028352916020019161102d565b820191906000526020600020905b81548152906001019060200180831161101057829003601f168201915b5050505050815260200160078201805461104690611ef4565b80601f016020809104026020016040519081016040528092919081815260200182805461107290611ef4565b80156110bf5780601f10611094576101008083540402835291602001916110bf565b820191906000526020600020905b8154815290600101906020018083116110a257829003601f168201915b5050505050815250509050919050565b81816008600086815260200190815260200160002091906110f19291906114c4565b50505050565b60606002600083815260200190815260200160002080548060200260200160405190810160405280929190818152602001828054801561115657602002820191906000526020600020905b815481526020019060010190808311611142575b50505050509050919050565b60405180606001604052808481526020016040518060400160405280600781526020017f50454e44494e4700000000000000000000000000000000000000000000000000815250815260200183838080601f016020809104026020016040519081016040528093929190818152602001838380828437600081840152601f19601f820116905080830192505050505050508152506001600085815260200190815260200160002060008201518160000155602082015181600101908051906020019061122f92919061138c565b50604082015181600201908051906020019061124c92919061138c565b509050506002600085815260200190815260200160002083908060018154018082558091505060019003906000526020600020016000909190919091505550505050565b60606005600083815260200190815260200160002080546112b090611ef4565b80601f01602080910402602001604051908101604052809291908181526020018280546112dc90611ef4565b80156113295780601f106112fe57610100808354040283529160200191611329565b820191906000526020600020905b81548152906001019060200180831161130c57829003601f168201915b50505050509050919050565b81816005600086815260200190815260200160002091906113579291906114c4565b50505050565b8060016000848152602001908152602001600020600101908051906020019061138792919061138c565b505050565b82805461139890611ef4565b90600052602060002090601f0160209004810192826113ba5760008555611401565b82601f106113d357805160ff1916838001178555611401565b82800160010185558215611401579182015b828111156114005782518255916020019190600101906113e5565b5b50905061140e919061154a565b5090565b60405180606001604052806000815260200160608152602001606081525090565b6040518061012001604052806000815260200160608152602001606081526020016060815260200160608152602001606081526020016060815260200160608152602001606081525090565b60405180610100016040528060008152602001606081526020016060815260200160608152602001606081526020016060815260200160608152602001606081525090565b8280546114d090611ef4565b90600052602060002090601f0160209004810192826114f25760008555611539565b82601f1061150b57803560ff1916838001178555611539565b82800160010185558215611539579182015b8281111561153857823582559160200191906001019061151d565b5b509050611546919061154a565b5090565b5b8082111561156357600081600090555060010161154b565b5090565b600061157a61157584611e11565b611dec565b90508281526020810184848401111561159257600080fd5b61159d848285611eb2565b509392505050565b60008083601f8401126115b757600080fd5b8235905067ffffffffffffffff8111156115d057600080fd5b6020830191508360018202830111156115e857600080fd5b9250929050565b600082601f83011261160057600080fd5b8135611610848260208601611567565b91505092915050565b60008135905061162881611fc6565b92915050565b60006020828403121561164057600080fd5b600061164e84828501611619565b91505092915050565b60008060006040848603121561166c57600080fd5b600061167a86828701611619565b935050602084013567ffffffffffffffff81111561169757600080fd5b6116a3868287016115a5565b92509250509250925092565b600080600080606085870312156116c557600080fd5b60006116d387828801611619565b94505060206116e487828801611619565b935050604085013567ffffffffffffffff81111561170157600080fd5b61170d878288016115a5565b925092505092959194509250565b60008060008060008060008060006101208a8c03121561173a57600080fd5b60006117488c828d01611619565b99505060206117598c828d01611619565b98505060408a013567ffffffffffffffff81111561177657600080fd5b6117828c828d016115ef565b97505060608a013567ffffffffffffffff81111561179f57600080fd5b6117ab8c828d016115ef565b96505060808a013567ffffffffffffffff8111156117c857600080fd5b6117d48c828d016115ef565b95505060a08a013567ffffffffffffffff8111156117f157600080fd5b6117fd8c828d016115ef565b94505060c08a013567ffffffffffffffff81111561181a57600080fd5b6118268c828d016115ef565b93505060e08a013567ffffffffffffffff81111561184357600080fd5b61184f8c828d016115ef565b9250506101008a013567ffffffffffffffff81111561186d57600080fd5b6118798c828d016115ef565b9150509295985092959850929598565b6000806000806000806000806000806101408b8d0312156118a957600080fd5b60006118b78d828e01611619565b9a505060206118c88d828e01611619565b99505060408b013567ffffffffffffffff8111156118e557600080fd5b6118f18d828e016115ef565b98505060608b013567ffffffffffffffff81111561190e57600080fd5b61191a8d828e016115ef565b97505060808b013567ffffffffffffffff81111561193757600080fd5b6119438d828e016115ef565b96505060a08b013567ffffffffffffffff81111561196057600080fd5b61196c8d828e016115ef565b95505060c08b013567ffffffffffffffff81111561198957600080fd5b6119958d828e016115ef565b94505060e08b013567ffffffffffffffff8111156119b257600080fd5b6119be8d828e016115ef565b9350506101008b013567ffffffffffffffff8111156119dc57600080fd5b6119e88d828e016115ef565b9250506101208b013567ffffffffffffffff811115611a0657600080fd5b611a128d828e016115ef565b9150509295989b9194979a5092959850565b6000611a308383611d33565b60208301905092915050565b6000611a4782611e52565b611a518185611e75565b9350611a5c83611e42565b8060005b83811015611a8d578151611a748882611a24565b9750611a7f83611e68565b925050600181019050611a60565b5085935050505092915050565b6000611aa582611e5d565b611aaf8185611e86565b9350611abf818560208601611ec1565b611ac881611fb5565b840191505092915050565b6000611ade82611e5d565b611ae88185611e97565b9350611af8818560208601611ec1565b611b0181611fb5565b840191505092915050565b600061010083016000830151611b256000860182611d33565b5060208301518482036020860152611b3d8282611a9a565b91505060408301518482036040860152611b578282611a9a565b91505060608301518482036060860152611b718282611a9a565b91505060808301518482036080860152611b8b8282611a9a565b91505060a083015184820360a0860152611ba58282611a9a565b91505060c083015184820360c0860152611bbf8282611a9a565b91505060e083015184820360e0860152611bd98282611a9a565b9150508091505092915050565b600061012083016000830151611bff6000860182611d33565b5060208301518482036020860152611c178282611a9a565b91505060408301518482036040860152611c318282611a9a565b91505060608301518482036060860152611c4b8282611a9a565b91505060808301518482036080860152611c658282611a9a565b91505060a083015184820360a0860152611c7f8282611a9a565b91505060c083015184820360c0860152611c998282611a9a565b91505060e083015184820360e0860152611cb38282611a9a565b915050610100830151848203610100860152611ccf8282611a9a565b9150508091505092915050565b6000606083016000830151611cf46000860182611d33565b5060208301518482036020860152611d0c8282611a9a565b91505060408301518482036040860152611d268282611a9a565b9150508091505092915050565b611d3c81611ea8565b82525050565b60006020820190508181036000830152611d5c8184611a3c565b905092915050565b60006020820190508181036000830152611d7e8184611ad3565b905092915050565b60006020820190508181036000830152611da08184611b0c565b905092915050565b60006020820190508181036000830152611dc28184611be6565b905092915050565b60006020820190508181036000830152611de48184611cdc565b905092915050565b6000611df6611e07565b9050611e028282611f26565b919050565b6000604051905090565b600067ffffffffffffffff821115611e2c57611e2b611f86565b5b611e3582611fb5565b9050602081019050919050565b6000819050602082019050919050565b600081519050919050565b600081519050919050565b6000602082019050919050565b600082825260208201905092915050565b600082825260208201905092915050565b600082825260208201905092915050565b6000819050919050565b82818337600083830152505050565b60005b83811015611edf578082015181840152602081019050611ec4565b83811115611eee576000848401525b50505050565b60006002820490506001821680611f0c57607f821691505b60208210811415611f2057611f1f611f57565b5b50919050565b611f2f82611fb5565b810181811067ffffffffffffffff82111715611f4e57611f4d611f86565b5b80604052505050565b7f4e487b7100000000000000000000000000000000000000000000000000000000600052602260045260246000fd5b7f4e487b7100000000000000000000000000000000000000000000000000000000600052604160045260246000fd5b6000601f19601f8301169050919050565b611fcf81611ea8565b8114611fda57600080fd5b5056fea2646970667358221220b3e3bcc61f09691394456e63974a9b5e750182898a9a8c4daad0c9536dad9bee64736f6c63430008040033",
  "linkReferences": {},
  "deployedLinkReferences": {}
}